:020000040000FA
:0400000080312828FB
:100008007E1480310B1F09280A2826282100911CFC
:100018000E280F2818282000911C132814281828A7
:1000280081310321803126282100111C1C281D281C
:1000380026282000111C2128222826288031A320C8
:10004800803126287E10090080312A2881314B21F1
:100058008031F80081314C218031F900FA017E109D
:100068002000803137288031CD2080318B170B1745
:1000780021008E012C0093017908F7007808F6001A
:100088008031722080318131452180311F3021003B
:100098008E00C0302C00930081314821803181319D
:1000A8003C2180317708F3007608F200790873065E
:1000B800031D6028780872060319632864286B28D2
:1000C8007308F7007208F6008031722080317308D7
:1000D800F9007208F8005328803128287708200092
:1000E800A5007608A400A536A40CA536A40C2408FF
:1000F8002C009200760803392000A4000530A435AE
:10010800FF3E031D832824352C00910008002000A1
:10011800990185309700EE30960011101708F1000C
:100128001608F000210011141130F6000130F70014
:1001380081313621803131302000980008002000BC
:1001480011107108F5007008F4008031F220803138
:100158002000200821040319B228B328B828210850
:100168008A0020080A008031080022008C018E01D4
:10017800303021008C001F308E000F3023008E009D
:1001880010308C0024008C012100951722009D015D
:1001980008008031B920803181311F2180318131BF
:1001A800412180318131282180318031E020803126
:1001B80080318B20803108004D3020009B009A014F
:1001C8009110210091144D30F6000130F700813173
:1001D80030218031073020009C0008002000181DC5
:1001E800F628F728FE281810750897007408960056
:1001F8001814022975089700740896000800200052
:1002080091102208230403190A290B29102923080D
:100218008A0022080A0081310800781C142915294F
:100228001A291A30F8000030F9001E292930F80080
:100238000030F90008002C302100990098012700AF
:100248009B01220096010800C0302C009300093061
:10025800920080309100080077082000A3007608FB
:10026800A200080077082000A1007608A000080076
:100278007908F7007808F600080016302100970082
:10028800080020001C1508002000181408001A3463
:040298000034080026
:020000040001F9
:04000E00E43F4F3E3E
:00000001FF
